{
  "_format": "hh-sol-artifact-1",
  "contractName": "SolidityBasics",
  "sourceName": "contracts/SolidityBasics.sol",
  "abi": [
    {
      "inputs": [],
      "name": "add",
      "outputs": [
        {
          "internalType": "uint256",
          "name": "",
          "type": "uint256"
        }
      ],
      "stateMutability": "pure",
      "type": "function"
    },
    {
      "inputs": [
        {
          "internalType": "string",
          "name": "_name",
          "type": "string"
        },
        {
          "internalType": "uint256",
          "name": "_favoriteNum",
          "type": "uint256"
        }
      ],
      "name": "addPerson",
      "outputs": [],
      "stateMutability": "nonpayable",
      "type": "function"
    },
    {
      "inputs": [],
      "name": "favNum",
      "outputs": [
        {
          "internalType": "uint256",
          "name": "",
          "type": "uint256"
        }
      ],
      "stateMutability": "view",
      "type": "function"
    },
    {
      "inputs": [
        {
          "internalType": "uint256",
          "name": "",
          "type": "uint256"
        }
      ],
      "name": "people",
      "outputs": [
        {
          "internalType": "uint256",
          "name": "favNumber",
          "type": "uint256"
        },
        {
          "internalType": "string",
          "name": "name",
          "type": "string"
        }
      ],
      "stateMutability": "view",
      "type": "function"
    },
    {
      "inputs": [],
      "name": "person",
      "outputs": [
        {
          "internalType": "uint256",
          "name": "favNumber",
          "type": "uint256"
        },
        {
          "internalType": "string",
          "name": "name",
          "type": "string"
        }
      ],
      "stateMutability": "view",
      "type": "function"
    },
    {
      "inputs": [],
      "name": "retrieve",
      "outputs": [
        {
          "internalType": "uint256",
          "name": "",
          "type": "uint256"
        }
      ],
      "stateMutability": "view",
      "type": "function"
    },
    {
      "inputs": [
        {
          "internalType": "uint256",
          "name": "_favNum",
          "type": "uint256"
        }
      ],
      "name": "store",
      "outputs": [],
      "stateMutability": "nonpayable",
      "type": "function"
    }
  ],
  "bytecode": "0x60806040526040518060400160405280600281526020016040518060400160405280600381526020017f72616a0000000000000000000000000000000000000000000000000000000000815250815250600160008201518160000155602082015181600101908162000072919062000303565b5050503480156200008257600080fd5b50620003ea565b600081519050919050565b7f4e487b7100000000000000000000000000000000000000000000000000000000600052604160045260246000fd5b7f4e487b7100000000000000000000000000000000000000000000000000000000600052602260045260246000fd5b600060028204905060018216806200010b57607f821691505b602082108103620001215762000120620000c3565b5b50919050565b60008190508160005260206000209050919050565b60006020601f8301049050919050565b600082821b905092915050565b6000600883026200018b7fffffffffffffffffffffffffffffffffffffffffffffffffffffffffffffffff826200014c565b6200019786836200014c565b95508019841693508086168417925050509392505050565b6000819050919050565b6000819050919050565b6000620001e4620001de620001d884620001af565b620001b9565b620001af565b9050919050565b6000819050919050565b6200020083620001c3565b620002186200020f82620001eb565b84845462000159565b825550505050565b600090565b6200022f62000220565b6200023c818484620001f5565b505050565b5b8181101562000264576200025860008262000225565b60018101905062000242565b5050565b601f821115620002b3576200027d8162000127565b62000288846200013c565b8101602085101562000298578190505b620002b0620002a7856200013c565b83018262000241565b50505b505050565b600082821c905092915050565b6000620002d860001984600802620002b8565b1980831691505092915050565b6000620002f38383620002c5565b9150826002028217905092915050565b6200030e8262000089565b67ffffffffffffffff8111156200032a576200032962000094565b5b620003368254620000f2565b6200034382828562000268565b600060209050601f8311600181146200037b576000841562000366578287015190505b620003728582620002e5565b865550620003e2565b601f1984166200038b8662000127565b60005b82811015620003b5578489015182556001820191506020850194506020810190506200038e565b86831015620003d55784890151620003d1601f891682620002c5565b8355505b6001600288020188555050505b505050505050565b61094e80620003fa6000396000f3fe608060405234801561001057600080fd5b506004361061007d5760003560e01c80636057361d1161005b5780636057361d146100dc5780636f760f41146100f857806377ec2b55146101145780639e7a13ad146101335761007d565b80632e64cec1146100825780633c8df652146100a05780634f2be91f146100be575b600080fd5b61008a610164565b6040516100979190610361565b60405180910390f35b6100a861016d565b6040516100b59190610361565b60405180910390f35b6100c6610173565b6040516100d39190610361565b60405180910390f35b6100f660048036038101906100f191906103bc565b61017c565b005b610112600480360381019061010d919061052f565b610186565b005b61011c6101f2565b60405161012a92919061060a565b60405180910390f35b61014d600480360381019061014891906103bc565b61028c565b60405161015b92919061060a565b60405180910390f35b60008054905090565b60005481565b60006002905090565b8060008190555050565b6000604051806040016040528083815260200184815250905060038190806001815401808255809150506001900390600052602060002090600202016000909190919091506000820151816000015560208201518160010190816101ea9190610846565b505050505050565b600180600001549080600101805461020990610669565b80601f016020809104026020016040519081016040528092919081815260200182805461023590610669565b80156102825780601f1061025757610100808354040283529160200191610282565b820191906000526020600020905b81548152906001019060200180831161026557829003601f168201915b5050505050905082565b6003818154811061029c57600080fd5b90600052602060002090600202016000915090508060000154908060010180546102c590610669565b80601f01602080910402602001604051908101604052809291908181526020018280546102f190610669565b801561033e5780601f106103135761010080835404028352916020019161033e565b820191906000526020600020905b81548152906001019060200180831161032157829003601f168201915b5050505050905082565b6000819050919050565b61035b81610348565b82525050565b60006020820190506103766000830184610352565b92915050565b6000604051905090565b600080fd5b600080fd5b61039981610348565b81146103a457600080fd5b50565b6000813590506103b681610390565b92915050565b6000602082840312156103d2576103d1610386565b5b60006103e0848285016103a7565b91505092915050565b600080fd5b600080fd5b6000601f19601f8301169050919050565b7f4e487b7100000000000000000000000000000000000000000000000000000000600052604160045260246000fd5b61043c826103f3565b810181811067ffffffffffffffff8211171561045b5761045a610404565b5b80604052505050565b600061046e61037c565b905061047a8282610433565b919050565b600067ffffffffffffffff82111561049a57610499610404565b5b6104a3826103f3565b9050602081019050919050565b82818337600083830152505050565b60006104d26104cd8461047f565b610464565b9050828152602081018484840111156104ee576104ed6103ee565b5b6104f98482856104b0565b509392505050565b600082601f830112610516576105156103e9565b5b81356105268482602086016104bf565b91505092915050565b6000806040838503121561054657610545610386565b5b600083013567ffffffffffffffff8111156105645761056361038b565b5b61057085828601610501565b9250506020610581858286016103a7565b9150509250929050565b600081519050919050565b600082825260208201905092915050565b60005b838110156105c55780820151818401526020810190506105aa565b60008484015250505050565b60006105dc8261058b565b6105e68185610596565b93506105f68185602086016105a7565b6105ff816103f3565b840191505092915050565b600060408201905061061f6000830185610352565b818103602083015261063181846105d1565b90509392505050565b7f4e487b7100000000000000000000000000000000000000000000000000000000600052602260045260246000fd5b6000600282049050600182168061068157607f821691505b6020821081036106945761069361063a565b5b50919050565b60008190508160005260206000209050919050565b60006020601f8301049050919050565b600082821b905092915050565b6000600883026106fc7fffffffffffffffffffffffffffffffffffffffffffffffffffffffffffffffff826106bf565b61070686836106bf565b95508019841693508086168417925050509392505050565b6000819050919050565b600061074361073e61073984610348565b61071e565b610348565b9050919050565b6000819050919050565b61075d83610728565b6107716107698261074a565b8484546106cc565b825550505050565b600090565b610786610779565b610791818484610754565b505050565b5b818110156107b5576107aa60008261077e565b600181019050610797565b5050565b601f8211156107fa576107cb8161069a565b6107d4846106af565b810160208510156107e3578190505b6107f76107ef856106af565b830182610796565b50505b505050565b600082821c905092915050565b600061081d600019846008026107ff565b1980831691505092915050565b6000610836838361080c565b9150826002028217905092915050565b61084f8261058b565b67ffffffffffffffff81111561086857610867610404565b5b6108728254610669565b61087d8282856107b9565b600060209050601f8311600181146108b0576000841561089e578287015190505b6108a8858261082a565b865550610910565b601f1984166108be8661069a565b60005b828110156108e6578489015182556001820191506020850194506020810190506108c1565b8683101561090357848901516108ff601f89168261080c565b8355505b6001600288020188555050505b50505050505056fea2646970667358221220e192e111817da9b374b8cde86cef7e2be841f23187e19ae5a41e23e96cbb6fe664736f6c63430008110033",
  "linkReferences": {},
  "deployedLinkReferences": {}
}